:020000040000FA
:060000005BEF04F01200AA
:0A0006000100F00800008A0000006D
:0400100004000000E8
:0C001400D9CFE6FFE1CFD9FF060EE126B0
:10002000926A9368946A956A010E836E020EE66E78
:10003000E66AD8D8E552E5520BD9020EF3CFDBFFC2
:10004000030EF4CFDBFF010EE66EE66ACBD8E55275
:10005000E552FED8040EF3CFDBFF050EF4CFDBFF35
:10006000030EE66EE66ABED8E552E552F1D8F3CF4C
:10007000DEFFF4CFDDFFDECF0BF0DDCF0CF00C3474
:1000800004E20B509008010E0C541AE2020EDBCF72
:100090000DF0030EDBCF0EF00E3404E20D5090088D
:1000A000010E0E540DE2010EE66EE66AE66EE66A99
:1000B000E66EE66A0EDA0B6E060EE15E0B50B6D700
:1000C000B5D7FFD7060EE15C02E2E16AE552E16EC8
:1000D000E552E7CFD9FF1200D9CFE6FFE1CFD9FF34
:1000E000080EE126DE6ADD6A020EDB6A030EDB6AB9
:1000F000040EDB6A050EDB6A060EDB6A070EDB6A9E
:10010000010EE66EE66A6ED8E552E552A1D8F3CF4D
:100110000BF0F4CF0CF01E0E0B26000E0C22020E7C
:100120000BC0DBFF030E0CC0DBFFE66EE66A5AD89D
:10013000E552E5528DD8040EF3CFDBFF050EF4CF68
:10014000DBFF020EDBCF0FF0030EDBCF10F0040E4F
:10015000DB500F5C0D6E050EDB5010580E6EDE503E
:100160000D240B6EDD500E200C6E0BC0DEFF0CC09C
:10017000DDFFDECF0BF0DDCF0CF00001800E0C14A4
:100180000EE0010EE66EE66A000EE66EE66A010E0D
:10019000E66EE66A9ED90B6E060EE15E0B50DECF70
:1001A0000BF0DDCF0CF00C3404E20B500008000E15
:1001B0000C540DE2000EE66EE66A010EE66EE66A8B
:1001C000E66EE66A86D90B6E060EE15E0B5098D796
:1001D000080EE15C02E2E16AE552E16EE552E7CF2A
:1001E000D9FF1200D9CFE6FFE1CFD9FFFD0EDBCF5B
:1001F00006F0FE0EDBCF07F0030E061801E10750F4
:100200001BE0020E061801E107500EE0010E061871
:1002100001E1075001E018D0030EC16E2D0EC26E31
:10022000080EC06EC28010D0030EC16E250EC26EC5
:10023000080EC06EC28008D0030EC16E210EC26EC1
:10024000080EC06EC28000D0E552E7CFD9FF120081
:10025000D9CFE6FFE1CFD9FF060EE126DE6ADD6ADF
:10026000020EDB6A030EDB6A040EDB6A050EDB6A34
:10027000C282C2B2FED7C450DE6EDD6ADECF0BF0A2
:10028000DDCF0CF0D8900B360C36D8900B360C36F0
:10029000020E0BC0DBFF030E0CC0DBFF060EC3CF4C
:1002A000E7FF070B04E0E742E79EE806FCE1E750C2
:1002B000E66ED950040FE96EDACFEAFFE552E75057
:1002C000EE6EED6A040EDBCF0DF0050EDBCF0EF007
:1002D000020EDB500D240B6E030EDB500E200C6E55
:1002E0000BC0DEFF0CC0DDFFDECF0BF0DDCF0CF06E
:1002F0000BC0F3FF0CC0F4FF060EE15C03E200D07C
:10030000E16AE552E16EE552E7CFD9FF1200D9CF9D
:10031000E6FFE1CFD9FF060EE126DE6ADD6ADECF19
:100320000BF0DDCF0CF0FD0EDBCF0DF0FE0EDBCFC2
:100330000EF00C500E18E8AE02D00E3404D00D5062
:100340000B5C0E500C5801E3BAD0030EE66EE66A61
:1003500049DFE552E5527CDF020EF3CFDBFF030EEF
:10036000F4CFDBFF010EE66EE66A3CDFE552E552B4
:100370006FDF040EF3CFDBFF050EF4CFDBFF020EC1
:10038000DBCF0BF0030EDBCF0CF0040EDBCF0DF058
:10039000050EDBCF0EF00C500E18E8AE02D00E3476
:1003A00004D00D500B5C0E500C5824E28CC0E6FFBC
:1003B0008DC0E6FFF4D8E552E552F3CF8CF0F4CFD0
:1003C0008DF08CC080FF320EE66E69EC04F0E552D1
:1003D0008CC0E6FF8DC0E6FFE2D8E552E552F3CFD0
:1003E0008CF0F4CF8DF08CC080FF320EE66E69EC9D
:1003F00004F0E552040EDBCF0BF0050EDBCF0CF062
:10040000020EDBCF0DF0030EDBCF0EF00C500E18FA
:10041000E8AE02D00E3404D00D500B5C0E500C58D8
:1004200025E28AC0E6FF8BC0E6FFB9D8E552E55267
:10043000F3CF8AF0F4CF8BF08AC082FF320EE66EE3
:1004400069EC04F0E5528AC0E6FF8BC0E6FFA7D84E
:10045000E552E552F3CF8AF0F4CF8BF08AC082FFE9
:10046000320EE66E69EC04F0E55224D08AC0E6FF55
:100470008BC0E6FF94D8E552E552F3CF8AF0F4CF73
:100480008BF08AC082FF320EE66E69EC04F0E55212
:100490008CC0E6FF8DC0E6FF82D8E552E552F3CF6F
:1004A0008CF0F4CF8DF08CC080FF320EE66E69ECDC
:1004B00004F0E552DF2A010E01E3DB2A30D7060EF5
:1004C000E15C02E2E16AE552E16EE552E7CFD9FF75
:1004D0001200D9CFE6FFE1CFD9FF040EE126020ECC
:1004E000DB6A030EDB6ADE6ADD6ADECF0BF0DDCF8E
:1004F0000CF0FD0EDBCF0DF0FE0EDBCF0EF00C503E
:100500000E18E8AE02D00E3404D00D500B5C0E5025
:100510000C583BE2D950FB0FE96EFF0EDA20EA6E71
:10052000EE50ED1012E08AC0E6FF8BC0E6FF37D830
:10053000E552E552F3CF8AF0F4CF8BF08AC082FF08
:10054000320EE66E69EC04F0E552D950F90FE96E0F
:10055000FF0EDA20EA6EEE50ED1012E08CC0E6FFDE
:100560008DC0E6FF1CD8E552E552F3CF8CF0F4CFF6
:100570008DF08CC080FF320EE66E69EC04F0E5521F
:10058000DF2A010E01E3DB2AB0D7040EE15C02E2B0
:10059000E16AE552E16EE552E7CFD9FF1200D9CF0B
:1005A000E6FFE1CFD9FFFD0EDBCF06F0FE0EDBCF7D
:1005B00007F0040E061801E107501CE0020E0618B1
:1005C00001E1075013E0010E061801E107500AE0AF
:1005D000080E061801E1075001E010D0010EF36E7D
:1005E000F46A0CD0020EF36EF46A08D0040EF36EB7
:1005F000F46A04D0080EF36EF46A00D0E552E7CF37
:10060000D9FF1200D9CFE6FFE1CFD9FFFD0EDBCF36
:1006100006F0FE0EDBCF07F0040E061801E10750CE
:100620001CE0020E061801E1075013E0010E061847
:1006300001E107500AE0080E061801E1075001E049
:1006400010D0040EF36EF46A0CD0080EF36EF46A48
:1006500008D0010EF36EF46A04D0020EF36EF46A51
:1006600000D0E552E7CFD9FF1200040E806E826EF3
:10067000320EE66E69EC04F0E552020E806E826E78
:10068000320EE66E69EC04F0E552010E806E826E69
:10069000320EE66E69EC04F0E552080E806E826E52
:1006A000320EE66E69EC04F0E5521200D9CFE6FF97
:1006B000E1CFD9FF020EE126DE6ADD6ADECF0BF064
:1006C000DDCF0CF0FD0EDBCF0DF0FE0EDBCF0EF01C
:1006D0000C500E18E8AE02D00E3404D00D500B5C56
:1006E0000E500C5824E28AC0E6FF8BC0E6FF8ADF7A
:1006F000E552E552F3CF8AF0F4CF8BF08AC082FF47
:100700008CC0E6FF8DC0E6FF4ADFE552E552F3CF2D
:100710008CF0F4CF8DF08CC080FF190EE66E3BECB0
:1007200004F0E552DF2A010E01E3DB2AC7D7020EEF
:10073000E15C02E2E16AE552E16EE552E7CFD9FF02
:100740001200D9CFE6FFE1CFD9FF020EE126DE6A23
:10075000DD6ADECF0BF0DDCF0CF0FD0EDBCF0DF050
:10076000FE0EDBCF0EF00C500E18E8AE02D00E34A9
:1007700004D00D500B5C0E500C5824E28CC0E6FFE8
:100780008DC0E6FF3FDFE552E552F3CF8CF0F4CFAA
:100790008DF08CC080FF8AC0E6FF8BC0E6FFFFDED5
:1007A000E552E552F3CF8AF0F4CF8BF08AC082FF96
:1007B000190EE66E3BEC04F0E552DF2A010E01E370
:1007C000DB2AC7D7020EE15C02E2E16AE552E16E84
:0807D000E552E7CFD9FF12004A
:0807D800060EF66E000EF76E2E
:1007E000000EF86E00010900F550856F0900F55004
:1007F000866F03E1856701D03DD00900F550806F19
:100800000900F550816F0900F550826F0900090059
:10081000F550E96E0900F550EA6E0900090009007B
:10082000F550836F0900F550846F09000900F6CF79
:1008300087F0F7CF88F0F8CF89F080C0F6FF81C04D
:10084000F7FF82C0F8FF0001835302E1845307E001
:100850000900F550EE6E8307F8E28407F9D787C0E8
:10086000F6FF88C0F7FF89C0F8FF00018507000E7A
:06087000865BBFD71200F9
:0A087600FF0EE350116E480E01D092
:100880004C0EE76EE72EFED7E76AE72EFED7112E55
:06089000F7D70000120082
:0A089600800EF36E00EE00F00F0E6E
:1008A00001D81200EA6002D0EE6AFCD7F350E9608A
:0608B0001200EE6AFCD705
:0A08B6001DEE00F02DEE00F0F86AD0
:1008C0000A9CECEC03F077EC04F00AEC00F0FBD7A8
:0208D000120014
:0E08D200FF0EE350116E1B0E00D001D0200E61
:0E08E000E76EE72EFED7112EFAD700D01200D9
:0208EE001200F6
:0408F00008000800F4
:00000001FF
